:100000000C9462000C948A000C948A000C948A0070
:100010000C948A000C948A000C948A000C948A0038
:100020000C948A000C948A000C948A000C948A0028
:100030000C948A000C948A000C948A000C948A0018
:100040000C94C2030C948A000C9432040C940C049B
:100050000C948A000C948A000C948A000C948A00F8
:100060000C948A000C948A000000000024002700F1
:100070002A0000000000250028002B0000000000DE
:1000800023002600290004040404040404040202DA
:100090000202020203030303030301020408102007
:1000A0004080010204081020010204081020000012
:1000B0000008000201000003040700000000000027
:1000C0000000ED0711241FBECFEFD8E0DEBFCDBF8B
:1000D00022E0AAE8B1E001C01D92AD39B207E1F714
:1000E00011E0A0E0B1E0E6E4F5E102C005900D9278
:1000F000AA38B107D9F710E0C2E6D0E004C02197D2
:10010000FE010E948D08C136D107C9F70E94640420
:100110000C94A10A0C940000833081F028F4813003
:1001200099F08230A9F008958730A9F08830C9F09D
:100130008430B1F4809180008F7D03C08091800075
:100140008F7780938000089584B58F7784BD08955C
:1001500084B58F7DFBCF8091B0008F778093B00006
:1001600008958091B0008F7DF9CFCF93DF93282F32
:1001700030E0F901E255FF4F8491F901E656FF4F57
:10018000D491F901EA57FF4FC491CC23A1F081111A
:100190000E948C00EC2FF0E0EE0FFF1FE458FF4FA1
:1001A000A591B491EC91ED2381E090E009F480E019
:1001B000DF91CF91089580E090E0FACF1F93CF9325
:1001C000DF93282F30E0F901E255FF4F8491F901C8
:1001D000E656FF4FD491F901EA57FF4FC491CC2363
:1001E000A9F0162F81110E948C00EC2FF0E0EE0F89
:1001F000FF1FEE58FF4FA591B4918FB7F894EC9183
:10020000111108C0D095DE23DC938FBFDF91CF9111
:100210001F910895DE2BF8CF0895AF92BF92CF9231
:10022000DF92EF92FF920F931F93CF93DF936C01B6
:100230007B018B01040F151FEB015E01AE18BF0897
:10024000C017D10759F06991D601ED91FC91019049
:10025000F081E02DC6010995892B79F7C501DF9161
:10026000CF911F910F91FF90EF90DF90CF90BF90B3
:10027000AF900895FC01538D448D252F30E0842FDD
:1002800090E0821B930B541710F0CF9608950197BE
:100290000895FC01918D828D981761F0A28DAE0FAB
:1002A000BF2FB11D5D968C91928D9F5F9F73928F32
:1002B00090E008958FEF9FEF0895FC01918D828D5E
:1002C000981731F0828DE80FF11D858D90E008952B
:1002D0008FEF9FEF0895FC01918D228D892F90E083
:1002E000805C9F4F821B91098F73992708958CEF33
:1002F00091E00E946B0121E0892B09F420E0822F1C
:10030000089580E090E0892B29F00E947701811107
:100310000C9400000895FC01A48DA80FB92FB11D05
:10032000A35ABF4F2C91848D90E001968F7399272B
:10033000848FA689B7892C93A089B1898C91837009
:1003400080648C93938D848D981306C00288F38902
:10035000E02D80818F7D80830895EF92FF920F932F
:100360001F93CF93DF93EC0181E0888F9B8D8C8D61
:1003700098131AC0E889F989808185FF15C09FB755
:10038000F894EE89FF896083E889F9898081837018
:10039000806480839FBF81E090E0DF91CF911F91C7
:1003A0000F91FF90EF900895F62E0B8D10E00F5FE8
:1003B0001F4F0F731127E02E8C8D8E110CC00FB6BE
:1003C00007FCFACFE889F989808185FFF5CFCE0156
:1003D0000E948B01F1CFEB8DEC0FFD2FF11DE35A45
:1003E000FF4FF0829FB7F8940B8FEA89FB898081D9
:1003F0008062CFCFCF93DF93EC01888D8823B9F053
:10040000AA89BB89E889F9898C9185FD03C080811F
:1004100086FD0DC00FB607FCF7CF8C9185FFF2CF9C
:10042000808185FFEDCFCE010E948B01E9CFDF9166
:10043000CF9108950F931F93A82FB0E09BE0899F61
:10044000F0011124E050FF4F7183608322833383D6
:10045000448355838FB7F8940091F8011091F90106
:100460002091FA013091FB018FBF0683178320870B
:10047000318761507109A85BBE4F6230710538F059
:10048000128660E08C911F910F910C94DE0081E048
:10049000828761E0F7CFFC0101900020E9F73197F6
:1004A000AF01481B590BBC018CEF91E00C940D017E
:1004B000CF93DF930E944B02EC018CE491E00E9409
:1004C0004B028C0F9D1FDF91CF910895CF93DF9347
:1004D000FC01248135816217730788F49B01C08178
:1004E000D1816CE770E0CE01820F931F0E94860AD3
:1004F000009729F08C1B9D0BDF91CF9108958FEF12
:100500009FEFFACFFC0180819181009711F00C944C
:100510002F090895EF92FF921F93CF93DF93CDB7EA
:10052000DEB7A1970FB6F894DEBF0FBECDBF182F70
:100530007B018FE491E00E944B0219A21F5C18A37B
:10054000CE0180960E944B026CE78CEF91E00E94F6
:10055000AD01C7010E945802A1960FB6F894DEBF04
:100560000FBECDBFDF91CF911F91FF90EF90089507
:10057000CF93DF93FC01C081D181209761F08991F5
:10058000882349F0082E000C990B0E94750AFE0181
:1005900031978083F4CFDF91CF910895FC012481BE
:1005A0003581232B39F421E0FB018081882349F038
:1005B00020E007C0808191810E94910A21E0892B6F
:1005C000B9F7822F08950F931F93CF93DF938C0178
:1005D000EB01FC01808191810097E1F068817981D4
:1005E00061157105A9F0428153812C813D8142172B
:1005F000530770F00E949A0A8C819D81F8019583BF
:1006000084831D821C82DF91CF911F910F910895E9
:100610000E942F0988819981F801918380838A81C2
:100620009B81938382838C819D81958384831982AE
:1006300018821B821A82E5CFEF92FF920F931F93CD
:10064000CF93DF93EC017B018A0188819981009728
:1006500029F02A813B812417350788F4B8016F5FA0
:100660007F4F0E94B809009791F0998388831B837C
:100670000A832C813D81232B11F4FC0110821D8300
:100680000C83B701888199810E949A0A0CC08881E5
:100690009981009711F00E942F09198218821D82FA
:1006A0001C821B821A82CE01DF91CF911F910F9184
:1006B000FF90EF900895AF92BF92CF92DF92EF92AA
:1006C000FF920F931F93CF93DF93EC016B015A01BD
:1006D00079012417350720F48B2D5901E42EF82ECB
:1006E000198218821B821A821D821C8250E040E00F
:1006F0006EE471E0CE010E941C03D60114960D91A8
:100700001C91A016B10628F5E016F10608F4870141
:10071000D601ED91FC911197E00FF11FF08010824E
:100720006D917C916A0D7B1D61157105F1F0FB01E6
:1007300001900020E9F73197AF01461B570BCE011E
:100740000E941C03F60180819181080F191FD801B6
:10075000FC92CE01DF91CF911F910F91FF90EF900E
:10076000DF90CF90BF90AF900895888199810097D6
:1007700011F00E942F09198218821D821C821B828F
:100780001A82E0CF1F920F920FB60F9211242F936F
:100790003F938F939F93AF93BF938091F801909174
:1007A000F901A091FA01B091FB013091F70123E02A
:1007B000230F2D3758F50196A11DB11D2093F70188
:1007C0008093F8019093F901A093FA01B093FB0193
:1007D0008091F3019091F401A091F501B091F6019F
:1007E0000196A11DB11D8093F3019093F401A09394
:1007F000F501B093F601BF91AF919F918F913F9119
:100800002F910F900FBE0F901F90189526E8230F81
:100810000296A11DB11DD2CF1F920F920FB60F925B
:1008200011242F933F934F935F936F937F938F93F5
:100830009F93AF93BF93EF93FF938CEF91E00E9450
:100840008B01FF91EF91BF91AF919F918F917F911C
:100850006F915F914F913F912F910F900FBE0F902D
:100860001F9018951F920F920FB60F9211242F937D
:100870008F939F93EF93FF93E0910C02F0910D0201
:100880008081E0911202F091130282FD1BC09081E1
:10089000809115028F5F8F7320911602821741F0AD
:1008A000E0911502F0E0E450FE4F958F8093150221
:1008B000FF91EF919F918F912F910F900FBE0F900D
:1008C0001F9018958081F4CFCF93DF93CDB7DEB71B
:1008D000A6970FB6F894DEBF0FBECDBF789484B54F
:1008E000826084BD84B5816084BD85B5826085BD2C
:1008F00085B5816085BD80916E00816080936E00BA
:1009000010928100809181008260809381008091AB
:10091000810081608093810080918000816080935C
:1009200080008091B10084608093B1008091B0001C
:1009300081608093B00080917A00846080937A0017
:1009400080917A00826080937A0080917A00816041
:1009500080937A0080917A00806880937A00109268
:10096000C100E0910C02F0910D0282E08083E091E1
:100970000802F09109021082E0910A02F0910B0244
:1009800080E1808310921402E0911002F091110234
:1009900086E08083E0910E02F0910F0280818061F9
:1009A0008083E0910E02F0910F0280818860808345
:1009B000E0910E02F0910F02808180688083E091C7
:1009C0000E02F0910F0280818F7D8083FBEC4F2E11
:1009D000F1E05F2EA8E4AA2EA1E0BA2E0FED11E0FF
:1009E000BBEDEB2EB1E0FB2E8FEEC82E81E0D82EB2
:1009F00094E4692E91E0792E912CD3018D903D01E4
:100A0000882D90E0FC01E656FF4F2491FC01EA5747
:100A1000FF4FE491EE23D1F08E2F90E0880F991FC5
:100A2000FC01E859FF4FA591B491FC01EE58FF4F2E
:100A3000859194914FB7F8945C91322F309535237E
:100A40003C93DC01EC912E2B2C934FBFF50181914F
:100A50005F01282F30E0F901E656FF4F9491F9012C
:100A6000EA57FF4FE491EE23A1F02E2F30E0220F42
:100A7000331FF901E859FF4FA591B491F901EE58E0
:100A8000FF4F459154912FB7F894EC919E2B9C9376
:100A90002FBF60E00E94DE00882D0E94B50021E09B
:100AA000892B09F020E0D6012D936D01F7012193E8
:100AB0007F01D8011D921D921D921D928D01F201A0
:100AC00011921192119211922F0124EF31E040E026
:100AD00050E070E060E0892D0E941A029394F4E0E7
:100AE0009F128BCF84E591E00E9458028FB7F89453
:100AF0004090F8015090F9016090FA017090FB016C
:100B00008FBF6AE8862E61E0962E8CEF91E00E94FE
:100B10006B01892B09F476C18CEF91E00E944901A9
:100B2000E091CA018A3019F08D3009F05FC1EE23DF
:100B300061F3F0E0E657FE4F10821A8E198E1C8E7C
:100B40001B8E1E8E1D8ED4010D900020E9F7AD0185
:100B50004B5851406AE871E0CE0149960E941C034F
:100B6000ED8CFE8CE114F10409F4F5C070E060E056
:100B7000CE0149960E9466028C018F3F980709F0CA
:100B8000F1C01C8A1B8A1E8A1D8A188E1F8A698DD5
:100B90007A8D6115710529F0A701CE0143960E9457
:100BA0001C03CE0143960E94B80262E671E0CE01BA
:100BB00043960E94CE02882309F40AC10F5F1F4F9B
:100BC000B801CE0149960E9466025C018F3F9807EA
:100BD00009F4BDC06C01FFEFCF1ADF0AB601CE01E8
:100BE00049960E9466027C019501A801BE01675EDC
:100BF0007F4FCE0101960E945B0389819A8110E0AC
:100C0000009719F00E941A08162FCE0101960E9433
:100C100082021E861D86188A1F861A8A198A50E04B
:100C200040E06EE471E0CE010D960E941C03188630
:100C30001F821A8619861C861B8650E040E06EE4EF
:100C400071E0CE0107960E941C032FEFE216F20618
:100C500009F093C02D8D3E8DA601BE01675E7F4FCA
:100C6000CE0101960E945B03BE016F5F7F4FCE01F4
:100C70000D960E94E302CE0101960E94820211505D
:100C8000143008F05CC01A8219821C821B821E82FA
:100C90001D826D857E856115710531F049895A89FE
:100CA000CE0101960E941C03CE0101960E94B8025B
:100CB00066E671E0CE0101960E94CE0224EF31E09B
:100CC00040E050E061E070E0811132C069E671E01F
:100CD000CE0101960E94CE0224EF31E040E050E0C8
:100CE00070E060E0811124C06DE671E0CE010196F4
:100CF0000E94CE028823F9F08B859C8524EF31E099
:100D000040E050E0892B91F08F819885009709F49D
:100D10005AC00E941A089B01AC01243631054105D6
:100D2000510520F424E630E040E050E062E070E05D
:100D3000812F0E941A02CE0101960E948202CE01EA
:100D400007960E948202CE010D960E948202CE0179
:100D500043960E948202CE0149960E94820210921E
:100D6000CA01D3CE9C0150E040E0BE01675E7F4FD8
:100D7000CE0143960E945B0314CF9701A601BE01EA
:100D8000675E7F4FCE0101960E945B03BE016F5FDD
:100D90007F4FCE010D960E94E302CE0101960E9484
:100DA00082022D8D3E8DA7014F5F5F4FBE01675EB2
:100DB0007F4FCE0101960E945B03BE016F5F7F4FA4
:100DC000CE01079656CF60E070E080E090E0A3CFC0
:100DD00063E771E0CE0143960E94CE02882309F4B6
:100DE000B6CF88E791E00E945802B1CFEF3308F008
:100DF000B6CF91E09E0F9093CA01F0E0E657FE4F08
:100E0000808383CE4BEDE42E41E0F42E4FED51E094
:100E10005EA34DA35FEEC52E51E0D52E64E471E0D4
:100E200078A36F8F10E000E0302EAF8DB8A18D91C8
:100E3000B8A3AF8F0E94B5009C0191E02115310548
:100E400009F090E0F60181916F01981749F0ADA18A
:100E5000BEA14D925D926D927C92139731979083D3
:100E6000ADA1BEA18D909D90AD90BD90BEA3ADA350
:100E7000B301A201481959096A097B094A31510590
:100E80006105710510F1D7018C91981709F474C0B0
:100E90009C93232B09F064C06DE771E0832D0E94C1
:100EA0008A02F801EE0FFF1FEE0FFF1FE553FE4F02
:100EB000408251826282738224EF31E040E050E050
:100EC00061E070E0832D0E941A020F5F1F4FBFEF99
:100ED000EB1AFB0A0430110509F0A6CF00E011E07F
:100EE000EE24E394F12CDD24D394F80180819181E8
:100EF000029701F586819781A085B185B301A20192
:100F0000481B590B6A0B7B0B82819381A481B581AD
:100F1000481759076A077B0768F046825782608640
:100F2000718662856D256287F701E95BFE4F8081DE
:100F30000E94DE00BFEFEB1AFB0A055F1F4FE5E0E2
:100F4000EE16F10491F680E090E0892B09F4CECD05
:100F50000E947701882309F4C9CD0E940000C6CD04
:100F600062E871E0832D0E948A0224EF31E040E0C4
:100F700050E070E060E0A6CF232B09F0A6CFC801B7
:100F8000880F991F880F991FFC01E553FE4F4F01F1
:100F900080819181A281B381A3019201281B390B29
:100FA0004A0B5B0BDA01C9018D3D9540A105B105E6
:100FB00008F48BCF65E871E0832D0E948A02D4018A
:100FC0004D925D926D927C92139761E0F801E85B1F
:100FD000FE4F80810E94DE0078CFECEFF1E01382BB
:100FE000128288EE93E0A0E0B0E084839583A6832C
:100FF000B78386E391E09183808385EC90E09587C9
:10100000848784EC90E09787868780EC90E0918BD2
:10101000808B81EC90E0938B828B82EC90E0958BBF
:10102000848B86EC90E0978B868B118E128E138EBC
:10103000148E08951F93FC0199278827BC01E8941A
:1010400011911032E9F3193010F01E30C8F31B3241
:1010500051F01D3249F4689406C00E944108610FA6
:10106000711D811D911D119110531A30B0F33EF482
:1010700090958095709561957F4F8F4F9F4F1F91F1
:101080000895592F482F372F262F660F771F881F57
:10109000991F660F771F881F991F620F731F841F88
:1010A000951F660F771F881F991F08952F923F92F3
:1010B0004F925F926F927F928F929F92AF92BF9268
:1010C000CF92DF92EF92FF920F931F93CF93DF9314
:1010D000CDB7DEB7CA1BDB0B0FB6F894DEBF0FBE71
:1010E000CDBF09942A88398848885F846E847D84BE
:1010F0008C849B84AA84B984C884DF80EE80FD80C0
:101100000C811B81AA81B981CE0FD11D0FB6F89435
:10111000DEBF0FBECDBFED010895EE0FFF1F05909E
:10112000F491E02D09940F931F93CF93DF938230B6
:10113000910510F482E090E0E0919B02F0919C0216
:1011400030E020E0B0E0A0E0309799F421153105BF
:1011500009F44AC0281B390B24303105D8F58A819F
:101160009B816115710589F1FB0193838283FE01E7
:1011700011C0408151810281138148175907E0F065
:101180004817590799F4109761F012960C9312972B
:1011900013961C933296CF01DF91CF911F910F913F
:1011A000089500939B0210939C02F4CF2115310502
:1011B00051F04217530738F0A901DB019A01BD0134
:1011C000DF01F801C1CFEF01F9CF90939C0280932A
:1011D0009B02CDCFFE01E20FF31F8193919322502A
:1011E000310939832883D7CF2091990230919A020F
:1011F000232B41F420912E0130912F0130939A023C
:101200002093990220912C0130912D012115310557
:1012100041F42DB73EB74091300150913101241B6C
:10122000350BE0919902F0919A02E217F307A0F4CE
:101230002E1B3F0B2817390778F0AC014E5F5F4F2C
:101240002417350748F04E0F5F1F50939A024093C2
:101250009902819391939FCFF0E0E0E09CCFCF93F0
:10126000DF930097E9F0FC01329713821282A0917C
:101270009B02B0919C02ED0130E020E01097A1F4B8
:1012800020813181820F931F2091990230919A021F
:101290002817390709F061C0F0939A02E093990288
:1012A000DF91CF910895EA01CE17DF07E8F54A8173
:1012B0005B819E0141155105B1F7E901FB83EA838A
:1012C00049915991C40FD51FEC17FD0761F4808136
:1012D00091810296840F951FE90199838883828109
:1012E00093819B838A83F0E0E0E012968D919C913C
:1012F00013970097B9F52D913C911197CD01029666
:10130000820F931F2091990230919A022817390772
:1013100039F6309751F510929C0210929B02B093CF
:101320009A02A0939902BCCFD383C283408151819A
:10133000840F951FC817D90761F44E5F5F4F8881EE
:101340009981480F591F518340838A819B819383E0
:1013500082832115310509F0B0CFF0939C02E09310
:101360009B029ECFFD01DC01C0CF13821282D7CF3A
:10137000B0E0A0E0EEEBF9E00C9458088C01009787
:1013800051F4CB010E9493088C01C801CDB7DEB7A0
:10139000E0E10C947408FC01E60FF71F9C01225059
:1013A0003109E217F30708F49DC0D901CD91DC9112
:1013B0001197C617D70798F0C530D10530F3CE0185
:1013C00004978617970708F3C61BD70B2297C1937C
:1013D000D1936D937C93CF010E942F09D6CF5B01EF
:1013E000AC1ABD0A4C018C0E9D1EA0919B02B091BF
:1013F0009C02512C412CF12CE12C109731F580915D
:10140000990290919A028815990509F05CC04616D8
:10141000570608F058C080912C0190912D0100973B
:1014200041F48DB79EB74091300150913101841B3A
:10143000950BE817F90708F055C0F0939A02E0936E
:101440009902F90171836083A0CF8D919C911197CE
:1014500012966C90129713967C901397A815B90565
:1014600059F56C0142E0C40ED11CCA14DB0420F112
:10147000AC014A195B09DA011296159780F0628275
:10148000738251834083D9016D937C93E114F104FD
:1014900071F0D7011396FC93EE93129776CF2296B4
:1014A0008C0F9D1FF90191838083F301EFCFF0939F
:1014B0009C02E0939B0269CF4816590608F42C0160
:1014C0007D01D3019ACFCB010E9493087C01009744
:1014D00049F0AE01B8010E947D0AC8010E942F099F
:1014E000870153CF10E000E050CF9111089581564D
:1014F0008A5108F4805285580895FB01DC0102C02E
:1015000001900D9241505040D8F70895FC0181910F
:10151000861721F08823D9F7992708953197CF01AD
:101520000895FB01DC018D91019080190110D9F320
:10153000990B0895FB01DC0101900D920020E1F769
:061540000895F894FFCFAE
:101546000000F401000000000000000000F40100AB
:101556000000000000000000F40100000000000090
:10156600000000F4010000000000000000009D02E1
:10157600800000000000AD010D013A01FA016B0187
:1015860049015D01020304050B0A09080D0A004220
:10159600544E7C0052454144597C41524455494E73
:1015A6004F004C4544004F4E004F464600424C49C2
:1015B6004E4B0050494E4700504F4E4700444F5740
:0A15C6004E00555000484F4C440001
:00000001FF
